:100000000C9463000C948B000C948B000C942306CE
:100010000C9423060C9423060C948B000C948B00F8
:100020000C948B000C948B000C948B000C948B0024
:100030000C948B000C948B000C948B000C948B0014
:100040000C9481050C948B000C94F1050C94CB0559
:100050000C948B000C948B000C948B000C948B00F4
:100060000C948B000C948B0000000008000201002F
:100070000003040700000000000000000000000072
:1000800023002600290000000000240027002A0089
:1000900000000000250028002B00040404040404D0
:1000A0000404020202020202030303030303010227
:1000B00004081020408001020408102001020408F6
:1000C0001020EA066C0911241FBECFEFD8E0DEBF76
:1000D000CDBF23E0AAEFB1E001C01D92A933B20762
:1000E000E1F711E0A0E0B1E0E8E4F8E102C005903A
:1000F0000D92AA3FB107D9F710E0C2E6D0E004C0E4
:100100002197FE010E94150AC136D107C9F70E9446
:1001100015080C94170C0C940000CF92DF92EF920C
:10012000FF920F931F93CF93DF936C017A018B01A2
:10013000C0E0D0E0CE15DF0581F0D8016D918D01D2
:10014000D601ED91FC910190F081E02DC601099559
:10015000892B11F02196EECF7E01C701DF91CF915F
:100160001F910F91FF90EF90DF90CF900895FC01C9
:10017000538D448D252F30E0842F90E0821B930B0C
:10018000541710F0CF96089501970895FC01918DB2
:10019000828D981761F0828DDF01A80FB11D5D96E9
:1001A0008C91928D9F5F9F73928F90E008958FEF57
:1001B0009FEF0895FC01918D828D981731F0828D0B
:1001C000E80FF11D858D90E008958FEF9FEF089562
:1001D000FC01918D228D892F90E0805C9F4F821BC6
:1001E00091098F73992708958BE492E00E94E800AB
:1001F00021E0892B09F420E0822F0895FC01848DF1
:10020000DF01A80FB11DA35ABF4F2C91848D90E040
:1002100001968F739927848FA689B7892C93A0891B
:10022000B1898C91837080648C93938D848D9813A5
:1002300006C00288F389E02D80818F7D8083089538
:10024000EF92FF920F931F93CF93DF93EC0181E026
:10025000888F9B8D8C8D981305C0E889F9898081E2
:1002600085FD26C0F62E0B8D10E00F5F1F4F0F731C
:100270001127E02E8C8DE8120CC00FB607FCFACFC8
:10028000E889F989808185FFF5CFCE010E94FE00C3
:10029000F1CF8B8DFE01E80FF11DE35AFF4FF08285
:1002A0009FB7F8940B8FEA89FB89808180620AC02E
:1002B0009FB7F894EE89FF896083E889F989808186
:1002C0008370806480839FBF81E090E0DF91CF9155
:1002D0001F910F91FF90EF900895CF93DF93EC0162
:1002E000888D8823C9F0EA89FB89808185FD05C056
:1002F000A889B9898C9186FD0FC00FB607FCF5CF90
:10030000808185FFF2CFA889B9898C9185FFEDCFD7
:10031000CE010E94FE00E7CFDF91CF91089580E0EB
:1003200090E0892B29F00E94F40081110C940000C8
:10033000089520914002309141022817390771F445
:1003400090913E0280913F02981741F0E0913E0269
:10035000F0E0E250FE4F808190E008958FEF9FEF34
:10036000089508951F93CF93DF93DC015C968D91E0
:100370009C915D97009739F421E030E013963C930F
:100380002E9312973BC05196ED91FC915297509647
:100390002C915097322F30951FB75E964C915E97F7
:1003A000742F727041FD6095F8944081772311F0AD
:1003B000422B01C043234083EC012197F1F748E031
:1003C000508160FF02C0522B01C053235083EC01C7
:1003D0002197F1F76695415099F78081772319F0BD
:1003E0008323808302C0282B20831FBF5C968D91BE
:1003F0009C915D970197F1F781E090E0DF91CF91BB
:100400001F91089520914002309141022817390729
:1004100071F480913F0220913E0290E0805C9F4FFA
:10042000821B910960E470E00E94CB09089580E08E
:1004300090E0089520914002309141022817390739
:10044000B9F490913E0280913F02981789F0E091B3
:100450003E02F0E0E250FE4F808120913E0230E00B
:100460002F5F3F4F2F73332720933E0290E0089574
:100470008FEF9FEF0895089580E090E008950F9327
:100480001F93FC018081811128C09FB7F89440918F
:10049000420250914302609144027091450286B538
:1004A000A89B06C08F3F21F04F5F5F4F6F4F7F4F7C
:1004B0009FBF762F652F542F44278A019B01080F79
:1004C000111D211D311DA901980162E0220F331F6A
:1004D000441F551F6A95D1F725C0813071F48FB73D
:1004E000F8944091470250914802609149027091FE
:1004F0004A028FBF9A01AB0115C0823091F42FB729
:10050000F89460914702709148028091490290915D
:100510004A022FBF28EE33E040E050E00E94DF099E
:1005200001C002C0B901CA011F910F9108950F9334
:100530001F93CF93DF93EC010E943F020C811D813A
:100540002E813F81DC01CB01801B910BA20BB30BF1
:10055000088519852A853B8580179107A207B3076F
:10056000D8F0CE010E943F026C837D838E839F83EF
:100570008981882389F09A81992371F09F3F29F01E
:100580008B81891748F48F5F8B83EC85FD85DF9124
:10059000CF911F910F910994DF91CF911F910F91EE
:1005A00008958AEF92E00E940202892B51F08AEFAF
:1005B00092E00E941A02682F8BE492E00E942001D0
:1005C000F0CF8BE492E00E94E800892B51F08BE49D
:1005D00092E00E94C600682F8AEF92E00E94B2016A
:1005E000F0CF0895CF93DF93009779F0FC0101904D
:1005F0000020E9F73197AF01481B590BBC018BE490
:1006000092E00E948D00EC0102C0C0E0D0E042E028
:1006100050E064E771E08BE492E00E948D008C0F63
:100620009D1FDF91CF910895CF93DF93EC014C8113
:100630005D81688179818AEF92E00E948D008AE273
:1006400091E00E94F2024C815D81688179818BE4A6
:1006500092E0DF91CF910C948D000E94020C0F93D9
:100660001F93CF93DF93EC0188819981009729F044
:100670002A813B812617370788F48B016F5F7F4FF4
:100680000E943C0B009761F0998388831B830A8347
:100690002C813D81232B11F4FC01108281E001C0EB
:1006A00080E0DF91CF911F910F910895EF92FF921B
:1006B0000F931F93CF93DF936115710511F480E0C1
:1006C0001CC041155105C1F07B01EC018C819D815D
:1006D0008A01080F191FB801CE010E942F03882339
:1006E00071F3288139818C819D81B701820F931F1D
:1006F0000E94100C1D830C8381E0DF91CF911F912C
:100700000F91FF90EF900895CF93DF93EC018881D4
:100710009981009711F00E94B30A198218821D82F4
:100720001C821B821A82DF91CF910895CF93DF93B1
:10073000EC01FB0144815581608171810E94560367
:10074000811103C0CE010E948403CE01DF91CF91BD
:100750000895CF93DF93EC016115710561F0FB0102
:1007600001900020E9F73197AF01461B570B0E941B
:100770005603811103C0CE010E948403CE01DF9194
:10078000CF910895EF92FF920F931F93CF93DF9332
:10079000EC01198218821B821A821D821C8261154B
:1007A000710521F18B01FB0101900020E9F73197E0
:1007B0007F01E61AF70AB7010E942F03811109C0D1
:1007C000CE01DF91CF911F910F91FF90EF900C948C
:1007D0008403FD82EC82B80188819981DF91CF91F9
:1007E0001F910F91FF90EF900C94100CDF91CF911F
:1007F0001F910F91FF90EF900895EF92FF920F934A
:100800001F93CF93DF93FC01118210821382128217
:10081000158214828617970739F1DB010D911C911F
:1008200011970115110501F1EC011496ED90FC9062
:100830001597B7010E942F03811109C0CE01DF91E6
:10084000CF911F910F91FF90EF900C948403FD8244
:10085000EC82B80188819981DF91CF911F910F912E
:10086000FF90EF900C94100CDF91CF911F910F919E
:10087000FF90EF900895FC01808191810C94B30A60
:10088000CF93DF93CDB7DEB72C970FB6F894DEBFCA
:100890000FBECDBF8091FA019091FB01A091FC01A8
:1008A000B091FD010196A11DB11D8093FA019093B5
:1008B000FB01A093FC01B093FD010197A105B105D7
:1008C00071F46FE371E0CE0101960E94C203CE0184
:1008D00001960E941403CE0101960E943B04809170
:1008E000FA019091FB01A091FC01B091FD010297EA
:1008F000A105B10571F46CE471E0CE0101960E948E
:10090000C203CE0101960E941403CE0101960E94FB
:100910003B048091FA019091FB01A091FC01B09100
:10092000FD010397A105B10571F466E571E0CE0103
:1009300001960E94C203CE0101960E941403CE01CB
:1009400001960E943B048091FA019091FB01A091D5
:10095000FC01B091FD010697A105B10509F560E61E
:1009600071E0CE0101960E94C20364EF72E0CE01F5
:1009700001960E94960364E771E00E94A903BC01FE
:10098000CE0107960E94FD03CE0107960E94140334
:10099000CE0107960E943B04CE0101960E943B04C3
:1009A0008091FA019091FB01A091FC01B091FD01B1
:1009B0000797A105B10509F569E671E0CE01019639
:1009C0000E94C2036EEE72E0CE0101960E94960371
:1009D00063E771E00E94A903BC01CE0107960E9463
:1009E000FD03CE0107960E941403CE0107960E94D4
:1009F0003B04CE0101960E943B048091FA01909144
:100A0000FB01A091FC01B091FD010897A105B10582
:100A100009F567E771E0CE0101960E94C20368EE16
:100A200072E0CE0101960E94960364E771E00E9495
:100A3000A903BC01CE0107960E94FD03CE010796D3
:100A40000E941403CE0107960E943B04CE0101963A
:100A50000E943B048091FA019091FB01A091FC015E
:100A6000B091FD010C97A105B10571F460E871E04A
:100A7000CE0101960E94C203CE0101960E9414038A
:100A8000CE0101960E943B048091FA019091FB01F6
:100A9000A091FC01B091FD010D97A105B10571F484
:100AA0006AE871E0CE0101960E94C203CE01019670
:100AB0000E941403CE0101960E943B048091FA012A
:100AC0009091FB01A091FC01B091FD010E97A10551
:100AD000B10571F464E971E0CE0101960E94C20390
:100AE000CE0101960E941403CE0101960E943B04A0
:100AF0002C960FB6F894DEBF0FBECDBFDF91CF911D
:100B000008951F920F920FB60F9211242F933F93C7
:100B10008F939F93AF93BF93809147029091480228
:100B2000A0914902B0914A023091460223E0230F7E
:100B30002D3720F40196A11DB11D05C026E8230F15
:100B40000296A11DB11D2093460280934702909307
:100B50004802A0934902B0934A02809142029091C8
:100B60004302A0914402B09145020196A11DB11D1E
:100B70008093420290934302A0934402B0934502B3
:100B8000BF91AF919F918F913F912F910F900FBE89
:100B90000F901F9018951F920F920FB60F9211246D
:100BA0002F933F934F935F936F937F938F939F9375
:100BB000AF93BF93EF93FF938BE492E00E94FE000C
:100BC000FF91EF91BF91AF919F918F917F916F9125
:100BD0005F914F913F912F910F900FBE0F901F90FB
:100BE00018951F920F920FB60F9211242F938F9387
:100BF0009F93EF93FF93E0915B02F0915C02808101
:100C0000E0916102F091620282FD12C090818091B8
:100C100064028F5F8F7320916502821751F0E0911B
:100C20006402F0E0E55BFD4F958F8093640201C0A4
:100C30008081FF91EF919F918F912F910F900FBE27
:100C40000F901F9018951F920F920FB60F921124BC
:100C50002F933F934F935F936F937F938F939F93C4
:100C6000AF93BF93EF93FF93E0914002F091410265
:100C7000309709F451C0968DA685B785858591FF7B
:100C800004C09C91892329F447C09C91892309F0D1
:100C900043C0A389B4899C918589809589238C93CD
:100CA000868997890197F1F7608D718DA685B78543
:100CB000558538E020E0CB010197F1F7822F90E0D5
:100CC00095958795282F4C91452309F02068315040
:100CD00091F7868D81FD209580913F0290E00196ED
:100CE0008F73992730913E02381749F0A0913F0247
:100CF000B0E0A250BE4F2C9380933F0203C0868D7C
:100D00008160868F828D938D0197F1F7A389B489D5
:100D10009C918589892B8C93FF91EF91BF91AF9125
:100D20009F918F917F916F915F914F913F912F9103
:100D30000F900FBE0F901F90189590E0FC01E8599E
:100D4000FF4F2491FC01E255FF4F3491FC01E65620
:100D5000FF4FE491EE2309F43CC0222339F1233004
:100D600091F038F42130A9F0223001F584B58F7D5F
:100D700012C0273091F02830A1F02430B9F48091CE
:100D800080008F7D03C0809180008F7780938000EA
:100D90000DC084B58F7784BD09C08091B0008F7776
:100DA00003C08091B0008F7D8093B000F0E0EE0F23
:100DB000FF1FE057FF4FA591B4919FB7F8946111C1
:100DC00004C08C913095382302C0EC913E2B3C93AB
:100DD0009FBF0895CF93DF9310924E0210924D0261
:100DE00088EE93E0A0E0B0E080934F029093500231
:100DF000A0935102B09352022AE031E030934C02AA
:100E000020934B0225EC30E0309358022093570298
:100E100024EC30E030935A022093590220EC30E069
:100E200030935C0220935B0221EC30E030935E0251
:100E300020935D0222EC30E03093600220935F0249
:100E400026EC30E03093620220936102109264023B
:100E500010926502109266021092670210922803A7
:100E60001092290310922A0310922B0310922C0344
:100E700010922D0310922E0310922F031092300324
:100E80001092310310923203109234031092330304
:100E900061E06093270310921A0310921B031092D3
:100EA0001C0310921D0310921E0310921F03109238
:100EB0002003109221031092220310922303109218
:100EC00024031092260310922503609319031092B5
:100ED000FD021092FC028093FE029093FF02A09309
:100EE0000003B09301038CE191E09093FB028093A7
:100EF000FA02109211031092100310921303109231
:100F000012031092150310921403109217031092FB
:100F10001603809118038E7F8D7F8093180386952A
:100F20008170682788E00E949D06E6EBF0E024913E
:100F3000E2EAF0E08491882399F090E0880F991F0D
:100F4000FC01EA57FF4FA591B491FC01E057FF4F18
:100F5000859194918FB7F894EC91E22BEC938FBF2D
:100F6000E6EBF0E0E491E0930A03E2EAF0E0E491DA
:100F7000F0E0EE0FFF1FE057FF4F859194919093A3
:100F80000C0380930B03E7EBF0E02491E3EAF0E03D
:100F900084918823C1F090E0880F991FFC01EA57E3
:100FA000FF4FC591D491FC01E057FF4FA591B4913B
:100FB0009FB7F8948881E22FE0958E2388838C91E7
:100FC000E823EC939FBF8091180381FD04C061E08A
:100FD00089E00E949D0689E080930603E7EBF0E03C
:100FE000E491E0930703E3EAF0E0E491F0E0EE0F30
:100FF000FF1FE458FF4F85919491909309038093CC
:1010000008036EE971E084EF92E00E94C20365EA92
:1010100071E08EEE92E00E94C2036AEA71E088EE0F
:1010200092E0DF91CF910C94C203789484B58260F2
:1010300084BD84B5816084BD85B5826085BD85B57C
:10104000816085BD80916E00816080936E001092FA
:101050008100809181008260809381008091810075
:101060008160809381008091800081608093800006
:101070008091B10084608093B1008091B000816064
:101080008093B00080917A00846080937A00809190
:101090007A00826080937A0080917A0081608093E8
:1010A0007A0080917A00806880937A001092C10063
:1010B000E0915B02F0915C0282E08083E091570254
:1010C000F09158021082E0915902F0915A028FEC8F
:1010D000808310926302E0915F02F091600286E0EB
:1010E0008083E0915D02F0915E0280818061808367
:1010F000E0915D02F0915E02808188608083E091E2
:101100005D02F0915E02808180688083E0915D02E3
:10111000F0915E0280818F7D808310921503109282
:1011200014031092130310921203109211031092E1
:1011300010038DE991E0909317038093160390912B
:101140000603963108F058C02DEB30E030931103C0
:10115000209310032BE931E0309313032093120303
:101160002CE231E030931503209314034091680082
:10117000983058F031E09E3008F430E021E0822FC2
:1011800001C0880F3A95EAF701C084E0842B809370
:101190006800983038F09E3040F0963148F020E0FA
:1011A00030E008C02DE630E005C02BE630E002C09C
:1011B0002CE630E030930E0320930D03983030F48A
:1011C00081E001C0880F9A95EAF70EC0292F30E020
:1011D0009E3018F42850310902C02E50310981E0A8
:1011E00001C0880F2A95EAF780930F0380911603B8
:1011F000909117030197F1F78091140390911503D3
:10120000892B49F1E0914002F091410282E0EA3FEE
:10121000F80709F1309739F0A389B4899C91858941
:10122000809589238C93809118038E7F8093180377
:1012300010923F0210923E028AEF92E09093410298
:1012400080934002E0910D03F0910E039081809114
:101250000F03892B808383EB91E00E94F20288EDDB
:1012600091E00E94F20284EF91E0A0E0B0E0809370
:101270002F0390933003A0933103B09332038FEF89
:101280008093290320E434E0309334032093330324
:101290004AE050E060E070E0409321035093220365
:1012A000609323037093240380931B0381ED92E0EA
:1012B000909326038093250381E0809328038093F5
:1012C0001A0387E293E00E94970289E193E00E946B
:1012D00097020E948F01F5CF88EE92E00E943B04B6
:1012E0008EEE92E00E943B0484EF92E00E943B0469
:1012F0008CE191E09093FB028093FA02809140028E
:10130000909141028A5F924071F4E0910D03F09157
:101310000E03908180910F03809589238083109222
:1013200041021092400208952F923F924F925F9295
:101330006F927F928F929F92AF92BF92CF92DF92E5
:10134000EF92FF920F931F93CF93DF93CDB7DEB74A
:10135000CA1BDB0B0FB6F894DEBF0FBECDBF0994DE
:101360002A88398848885F846E847D848C849B8435
:10137000AA84B984C884DF80EE80FD800C811B8143
:10138000AA81B981CE0FD11D0FB6F894DEBF0FBE72
:10139000CDBFED01089597FB072E16F4009407D0FA
:1013A00077FD09D00E94010A07FC05D03EF4909514
:1013B00081959F4F0895709561957F4F0895A1E2A3
:1013C0001A2EAA1BBB1BFD010DC0AA1FBB1FEE1FBF
:1013D000FF1FA217B307E407F50720F0A21BB30B0A
:1013E000E40BF50B661F771F881F991F1A9469F786
:1013F00060957095809590959B01AC01BD01CF01E2
:101400000895AA1BBB1B51E107C0AA1FBB1FA6174B
:10141000B70710F0A61BB70B881F991F5A95A9F79D
:1014200080959095BC01CD010895EE0FFF1F0590AA
:10143000F491E02D09940F931F93CF93DF938230A3
:10144000910510F482E090E0E0913703F0913803C9
:1014500020E030E0A0E0B0E0309719F14081518108
:101460000281138148175907C8F08417950769F45A
:10147000109731F012960C93129713961C9327C075
:10148000009337031093380322C02115310519F05A
:101490004217530718F49A01BD01EF01DF01F8016B
:1014A000DBCF21153105F9F0281B390B243031052C
:1014B00080F48A819B816115710521F0FB01938382
:1014C000828304C09093380380933703FE013296E1
:1014D00044C0FE01E20FF31F819391932250310922
:1014E000398328833AC02091350330913603232B6A
:1014F00041F420910201309103013093360320938F
:10150000350320910001309101012115310541F48D
:101510002DB73EB74091040150910501241B350BB6
:10152000E0913503F0913603E217F307A0F42E1B88
:101530003F0B2817390778F0AC014E5F5F4F241737
:10154000350748F04E0F5F1F509336034093350325
:101550008193919302C0E0E0F0E0CF01DF91CF9161
:101560001F910F910895CF93DF93009709F481C0E5
:10157000FC01329713821282A0913703B091380395
:10158000109781F420813181820F931F20913503C0
:10159000309136032817390751F5F0933603E0935D
:1015A000350367C0ED0120E030E0CE17DF0740F4DF
:1015B0004A815B819E0141155105F1F0EA01F5CFA9
:1015C000D383C28340815181840F951FC817D907E7
:1015D00059F488819981840F951F029691838083A5
:1015E0008A819B81938382832115310529F4F093AD
:1015F0003803E09337033DC0E901FB83EA83499157
:101600005991C40FD51FEC17FD0761F480819181BA
:10161000840F951F0296E9019983888382819381C3
:101620009B838A83E0E0F0E012968D919C91139762
:10163000009719F0FD01DC01F7CF8D919C91119776
:101640009D012E5F3F4F820F931F209135033091F4
:1016500036032817390769F4309729F410923803B4
:101660001092370302C013821282B0933603A09304
:101670003503DF91CF910895A0E0B0E0E2E4FBE014
:101680000C949809EC01009721F4CB010E941B0AED
:10169000B4C0FC01E60FF71F9C0122503109E2178C
:1016A000F30708F4A8C0D9010D911C9111970617F2
:1016B0001707B0F00530110508F49BC0C801049766
:1016C0008617970708F495C002501109061B170BDF
:1016D000019311936D937C93CF010E94B30A89C04B
:1016E0005B01A01AB10A4C01800E911EA091370334
:1016F000B0913803612C712CE12CF12C109709F476
:1017000046C08D919C911197A815B905B1F56C0152
:1017100042E0C40ED11CCA14DB0478F14C018A18D3
:101720009B08640142E0C40ED11C1296BC90129733
:101730001396AC91B5E0CB16D10440F0B282A383EE
:1017400091828082D9016D937C9309C00E5F1F4FF7
:10175000800F911FF90191838083EB2DFA2FE11403
:10176000F10431F0D7011396FC93EE93129741C028
:10177000F0933803E09337033CC06816790608F409
:101780003C017D0112960D90BC91A02DB7CF8091A8
:1017900035039091360388169906E1F466167706AC
:1017A000C8F48091000190910101009741F48DB738
:1017B0009EB74091040150910501841B950BE817D9
:1017C000F907C8F4F0933603E0933503F901718308
:1017D00060830FC0CB010E941B0A7C01009759F067
:1017E000A801BE010E94070CCE010E94B30AC701E6
:1017F00004C0CE0102C080E090E0CDB7DEB7EEE0DD
:101800000C94B40981E090E0F8940C94170CFB015F
:10181000DC0102C001900D9241505040D8F708956C
:10182000FB01DC0101900D920020E1F7089510E02A
:10183000C2E6D0E004C0FE010E94150A2196C3361C
:08184000D107C9F7F894FFCFAE
:101848000000390380000000000020018D00B7006F
:101858006D01E800C600DA0000000000B2018D004A
:101868003C02B10102021A0299013D3D3D3D3D3D58
:101878003D3D3D3D3D3D3D3D3D3D3D3D3D3D0041C9
:10188800542B56455253494F4E0D0A0041542B4193
:101898004444520D0A0041542B524F4C450D0A0046
:1018A80041542B4E414D453A0041542B5053574417
:1018B8003A2200220D0A0041542B554152543D0052
:1018C80041542B4E414D450D0A0041542B5053575E
:1018D800440D0A0041542B554152540D0A005350EF
:1018E80043303031003030303000393630302C3031
:1018F8002C3000412E522E542E5320426C756574A4
:101908006F6F7468204D6F64756C6520496E6974DB
:1019180069616C697A6572006372656174656420D7
:1019280062793A205268616C662057656E64656C0E
:0A19380020436161636261790000E1
:107E0000112484B714BE81FFF0D085E080938100F7
:107E100082E08093C00088E18093C10086E0809377
:107E2000C20080E18093C4008EE0C9D0259A86E02C
:107E300020E33CEF91E0309385002093840096BBD3
:107E4000B09BFECF1D9AA8958150A9F7CC24DD24C4
:107E500088248394B5E0AB2EA1E19A2EF3E0BF2EE7
:107E6000A2D0813461F49FD0082FAFD0023811F036
:107E7000013811F484E001C083E08DD089C08234E0
:107E800011F484E103C0853419F485E0A6D080C0E4
:107E9000853579F488D0E82EFF2485D0082F10E0AE
:107EA000102F00270E291F29000F111F8ED06801E7
:107EB0006FC0863521F484E090D080E0DECF843638
:107EC00009F040C070D06FD0082F6DD080E0C81688
:107ED00080E7D80618F4F601B7BEE895C0E0D1E017
:107EE00062D089930C17E1F7F0E0CF16F0E7DF06D8
:107EF00018F0F601B7BEE89568D007B600FCFDCFD4
:107F0000A601A0E0B1E02C9130E011968C91119780
:107F100090E0982F8827822B932B1296FA010C0160
:107F200087BEE89511244E5F5F4FF1E0A038BF0790
:107F300051F7F601A7BEE89507B600FCFDCF97BE46
:107F4000E89526C08437B1F42ED02DD0F82E2BD052
:107F50003CD0F601EF2C8F010F5F1F4F84911BD097
:107F6000EA94F801C1F70894C11CD11CFA94CF0C13
:107F7000D11C0EC0853739F428D08EE10CD085E9AC
:107F80000AD08FE07ACF813511F488E018D01DD067
:107F900080E101D065CF982F8091C00085FFFCCF94
:107FA0009093C60008958091C00087FFFCCF809118
:107FB000C00084FD01C0A8958091C6000895E0E648
:107FC000F0E098E1908380830895EDDF803219F02E
:107FD00088E0F5DFFFCF84E1DECF1F93182FE3DFCA
:107FE0001150E9F7F2DF1F91089580E0E8DFEE27F6
:047FF000FF270994CA
:027FFE00040479
:0400000300007E007B
:00000001FF
